:020000040800F2
:100000009836002069880108C13200087388010809
:10001000C3320008C7320008CB32000800000000DD
:10002000000000000000000000000000CF320008C7
:10003000D1320008000000007F880108D9BC000808
:100040008388010883880108838801088388010860
:100050008388010883880108838801088388010850
:100060008388010883880108838801088388010840
:100070008388010883880108838801088388010830
:100080008388010883880108838801088388010820
:10009000838801088388010883880108D332000817
:1000A0008388010883880108838801088388010800
:1000B00083880108E5320008ED32000883880108D2
:1000C00083880108838801088388010883880108E0
:1000D00083880108F5320008FD3200080533000866
:1000E00083880108838801088388010883880108C0
:1000F00083880108838801088388010883880108B0
:10010000838801088388010883880108838801089F
:100110000D3300081533000883880108838801081F
:10012000838801088388010883880108838801087F
:10013000838801088388010883880108838801086F
:10014000838801088388010883880108D5DE0008B8
:100150008388010883880108838801081D3300080B
:10016000838801088388010883880108838801083F
:10017000838801088388010883880108838801082F
:100180008388010883880108DFF80CD019F0F0FE9D
:1001900000480047A10100089836002000BFFEE794
:1001A00000F0FCF80349087000F09BF801E000F053
:1001B000BEF8FCE7E410002010B5704840686F49B5
:1001C00008600BF038FD6D4948606D49C8606B48A8
:1001D00040686A490968401A6849886009F0C0FEA9
:1001E000012006F03DFD012009F0E0FE09F034FF9A
:1001F0000EF06EFC6349012007F09AFF012008F021
:10020000EBF99FED610A04F0C5F801F0F9FE0BF07F
:1002100012FD5B49086108460069C968401A5849DF
:10022000486110BD10B59FED590A07F084FD02200A
:1002300009F098FC022003F0BAFE10BD10B505F0DD
:1002400085FC50489FED520A07F09EFA10BD10B58C
:100250000BF0F1FC4A4908600A2002F085FD0A20F3
:1002600008F068FA0A2009F008FF0A200EF051FC95
:100270009FED480A07F0F2F89FED460A06F0D3FF1B
:100280000A2002F0A1FE0A200AF080F90BF0D3FC4C
:100290003B494860084640680968401A3849886008
:1002A00010BD10B5142009F0BFFE142003F0CBF9E7
:1002B000142004F030FA3349142008F0B9FB14205C
:1002C00004F048FA10BD10B5322009F05FFD32206D
:1002D0000EF03BFD10BD10B54FF4FA700AF060FD52
:1002E00010BD002000BF1FE000EB40012A4A02EBD6
:1002F000810189884FF47A7292FBF1F100EB4002A0
:10030000254B03EB8202D18000EB40011A4602EB41
:100310008101C988012905DA012100EB400203EBC4
:100320008202D180411CC8B20728DDD3704770B566
:10033000002400BF1EE00BF0B9FC054604EB4400AE
:10034000154901EB80008068281A04EB4401124A29
:1003500002EB8101C98888420AD304EB44001146AC
:1003600001EB8000856004EB440152F821008047D6
:10037000601CC4B2072CDED370BD00007C050020D9
:10038000880500208C0800206F12833A6F12033B0F
:100390000AD7A33B0AD7233C0000002010B54FF436
:1003A00080600FF025FA0BF014FC64200BF06CFC5D
:1003B00009F07EFF0CF0D6FD04F071FA02F0EAF9C4
:1003C0000BF034FA64200BF05FFC0AF051FD0CF0E6
:1003D00067F80BF0E3FF0CF00FFA0CF027F9274950
:1003E00048700870012088700CF044FC2349C870E4
:1003F00002F098FF64200BF047FC21480BF080FCD2
:100400000A200BF041FC1E480BF04AFD0A200BF0BD
:100410003BFC1B480BF014FE0A200BF035FC4FF49C
:1004200016500BF0EFFE0FF0D1F808B9002000E0F5
:1004300002201449087008460078022802D10EF004
:100440004FFF05E00F48007810B90D480BF0F8FD9C
:100450000AF08DFA64200BF017FC07F0B5FD0EF0E2
:100460005BF932200BF010FC0EF018FC06F0EEF9F0
:1004700005A002F0E2F8012010BD000018110020D4
:1004800020A107005400002053595320696E69745D
:10049000204F4B210000000070B505460C46214658
:1004A000FE4802F046FF2146FC480BF0DAFC70BD26
:1004B000FB4890ED010AF8EEC00A9FEDFA1A80EEB3
:1004C000810A10EE100AF849C864F54890ED020A56
:1004D000F8EEC00A9FEDF31A80EE810A10EE100AC2
:1004E0000865EF4890ED030AF8EEC00A9FEDED1A9B
:1004F00080EE810A10EE100A4865E94890ED040A82
:10050000F8EEC00A9FEDE71A80EE810A10EE100A9D
:100510008865E34890ED050AF8EEC00A9FEDE11A00
:1005200080EE810A10EE101ADF48C165DC4890EDBC
:10053000060AF8EEC00A9FEDDB1A80EE810A10EE83
:10054000101AD9480166D64890ED070AF8EEC00A9D
:100550009FEDD41A80EE810A10EE100AD249486647
:10056000CF4890ED080AF8EEC00A9FEDCE1A80EE53
:10057000810A10EE101ACC488166C94890ED090A2C
:10058000F8EEC00A9FEDC71A80EE810A10EE101A2D
:10059000C548C166C24890ED0A0AF8EEC00A9FED50
:1005A000C11A80EE810A10EE100ABF490867BC48E4
:1005B00090ED0B0AF8EEC00A9FEDBA1A80EE810AA0
:1005C00010EE100A4867B64890ED0C0AF8EEC00A23
:1005D0009FEDB41A80EE810A10EE100A8867B048C9
:1005E00090ED0D0AF8EEC00A9FEDAE1A80EE810A7A
:1005F00010EE100AC867AA4890ED0E0AF8EEC00A7D
:100600009FEDA81A80EE810A10EE101AA648C0F8D5
:100610008010A34890ED0F0AF8EEC00A9FEDA11AD2
:1006200080EE810A10EE101A9F48C0F884109C4892
:1006300090ED100AF8EEC00A9FED9A1A80EE810A3A
:1006400010EE100A9849C1F88800954890ED110AFB
:10065000F8EEC00A9FED931A80EE810A10EE101A90
:100660009148C0F88C108E4890ED120AF8EEC00A3E
:100670009FED8C1A80EE810A10EE101A8A48C0F89D
:100680009010874890ED130AF8EEC00A9FED851A86
:1006900080EE810A10EE100A8349C1F89400804868
:1006A00090ED140AF8EEC00A9FED7E1A80EE810AE2
:1006B00010EE100AC1F89800794890ED150AF8EE8E
:1006C000C00A9FED781A80EE810A10EE100AC1F878
:1006D0009C00734890ED160AF8EEC00A9FED711A5F
:1006E00080EE810A10EE100AC1F8A0006C4890ED6F
:1006F000170AF8EEC00A9FED6B1A80EE810A10EE21
:10070000100AC1F8A400664890ED180AF8EEC00A75
:100710009FED641A80EE810A10EE100AC1F8A8005D
:100720005F4890ED190AF8EEC00A9FED5E1A80EE60
:10073000810A10EE100AC1F8AC00594890ED1A0A6F
:10074000F8EEC00A9FED571A80EE810A10EE100AEB
:10075000C1F8B000524890ED1B0AF8EEC00A9FEDB8
:10076000511A80EE810A10EE100AC1F8B4004C480C
:1007700090ED1C0AF8EEC00A9FED4A1A80EE810A3D
:1007800010EE100AC1F8B800454890ED1D0AF8EEC9
:10079000C00A9FED441A80EE810A10EE100AC1F8DB
:1007A000BC003F4890ED1E0AF8EEC00A9FED3D1ACE
:1007B00080EE810A10EE100AC1F8C000384890EDB2
:1007C0001F0AF8EEC00A9FED371A80EE810A10EE7C
:1007D000100AC1F8C400324890ED200AF8EEC00AB1
:1007E0009FED301A80EE810A10EE100AC1F8C800A1
:1007F0002B4890ED210AF8EEC00A9FED2A1A80EEF0
:10080000810A10EE100AC1F8CC00254890ED220AAA
:10081000F8EEC00A9FED231A80EE810A10EE100A4E
:10082000C1F8D0001E4890ED230AF8EEC00A9FEDF3
:100830001D1A80EE810A10EE100AC1F8D400184883
:1008400090ED240AF8EEC00A9FED161A80EE810A98
:1008500010EE100AC1F8D8001148D0F8F40010B911
:10086000002088700AE00E48D0F8F400012802D178
:100870000D49887002E002200B498870084890ED0D
:100880003F0AF8EEC00AB2EE041A80EE810A10EEBA
:10089000100A0549C1F8DC00014807E046070020BE
:1008A000A005002000007A443B17002090ED400A8C
:1008B000F8EEC00AB2EE041A80EE810A10EE100AB9
:1008C000C1F8E000FE4890ED410AF8EEC00AB2EE31
:1008D000041A80EE810A10EE100AC1F8E400F8480C
:1008E00090ED450AB8EEC00A10EE100AC1F8E80013
:1008F000F34890ED460AB8EEC00A10EE100AC1F8AF
:10090000EC00EF4890ED470AB8EEC00A10EE100A6E
:10091000C1F8F000EA4890ED3E0AB8EEC00A10EEC9
:10092000100AC1F8F400E648D0F8200110B9002000
:10093000C87002E00120E349C870704770B50446F2
:100940000D46642C00DD70BDDD4840F82450FFF7F3
:10095000AFFDDD48848203F097FF00BFF3E72DE988
:10096000FF4105460E460024AA222146641CD748B2
:10097000425405222146641C42542146641C4554BD
:10098000E0222146641C425400222146641C425449
:100990002146641C46549DF809202146641C42549B
:1009A0009DF808202046611CCCB2C8490A549DF825
:1009B0000D202046611CCCB2C4490A549DF80C207D
:1009C0002046611CCCB2C1490A549DF8292020461A
:1009D000611CCCB2BD490A549DF828202146601CF8
:1009E000C4B2BA4842549DF82D202046611CCCB2B6
:1009F000B6490A549DF82C202046611CCCB2B3495C
:100A00000A549DF831202046611CCCB2AF490A54EB
:100A10009DF830202046611CCCB2AC490A54601FBE
:100A200008710027002005E0A849095C3944CFB2CD
:100A3000411CC8B2A042F7DB2046611CCCB2A349DE
:100A40000F542146A148FFF727FDBDE8FF812DE99E
:100A5000FE4304460D460026002004E0215C31449C
:100A6000CEB2411CC8B2691E8142F7DC601910F891
:100A7000010CB04201D0BDE8FE832078AA2802D143
:100A80006078AF2800D0F6E7A07805287BD1E07821
:100A9000E0287AD16079102853D004DC012807D0EF
:100AA000022853D124E011284FD0E1284ED141E053
:100AB000A07920B9E079012801D185490870A07991
:100AC00028B9E079022802D1012081494870A07933
:100AD00028B9E079042802D101207E490870A07964
:100AE00028B9E079B02802D101207749C8702EE0FA
:100AF000A07940B9E079AA2805D109F095FF07F05F
:100B000063FA03F0C1FEA07930B9E079AB2803D1D4
:100B10000AF0B9F803F0B8FEA07950B9E079AF282F
:100B200007D109F081FF07F04FFA0AF0ACF803F0A3
:100B3000ABFE0CE0E079A17940EA012062498882AD
:100B400005E0601D02F03EFD01E000E000BF00BFD7
:100B5000E07BA17B40EA0120617B227B41EA02210C
:100B6000E27AA37A42EA0322CDE900210290607A78
:100B7000277A40EA0723E079A77940EA07226179DA
:100B8000AF20FFF7ECFE17E0FFE7E078E12813D194
:100B9000A079617940EA0127E0790006217A00EB2B
:100BA0000140617A00EB0120A17A00EB0108414687
:100BB0003846FFF7C3FE00BF00BF5CE710B54648EC
:100BC000007848B145480078801DC1B24448FFF71D
:100BD0003EFF00204049087010BD1FB5AA208DF8C7
:100BE00000008DF8010000208DF8020009208DF82A
:100BF000030005208DF8040000208DF80500012079
:100C00008DF8060000208DF8070011208DF80800EF
:100C100001208DF8090090208DF80A0000208DF841
:100C20000B008DF80C00002400BF05E01DF800103B
:100C30002144CCB2411CC8B20D28F7DB8DF80D4021
:100C40000E216846FFF728FC1FBD2DE9F0432DED6E
:100C5000028B83B005460E4617469846B0EE408A92
:100C6000F0EE608A0024AA222146641C17484254F0
:100C700005222146641C4254AF222146641C425482
:100C800004222146641C425400222146641C425422
:100C90002146641C45542146641C465401979DF826
:100CA00007202046611CCCB208490A549DF8062052
:100CB0002046611CCCB205490A549DF8052011E07C
:100CC000A00500203B170020300700204607002029
:100CD0000012002098030020590000205800002036
:100CE000780700202046611CCCB2FE490A549DF8CA
:100CF00004202046611CCCB2FA490A54CDF8048085
:100D00009DF807202046611CCCB2F6490A549DF894
:100D100006202046611CCCB2F2490A549DF80520F9
:100D20002046611CCCB2EF490A549DF804202046AD
:100D3000611CCCB2EB490A54B2EE040A28EE000A58
:100D4000BDEEC00A10EE100A00B202909DF8092014
:100D50002046611CCCB2E3490A549DF80820204685
:100D6000611CCCB2DF490A54BCEEE80A10EE100A4E
:100D700080B200909DF801202046611CCCB2D94978
:100D80000A549DF800202046611CCCB2D5490A5473
:100D9000601F08714FF00009002006E0D149095C8E
:100DA000494401F0FF09411CC8B2A042F6DB2046CD
:100DB000611CCCB2CB4901F800902146C948FFF72D
:100DC0006BFB03B0BDEC028BBDE8F0832DE9F0476F
:100DD00005460E4617469846DDF820A00024AA22B4
:100DE0002146641CBF48425405222146641C4254DB
:100DF000AF222146641C425408222146641C4254FE
:100E000000222146641C42542146641C455421465C
:100E1000641C46542046611CCCB2B2490F54204693
:100E2000611CCCB2AF4901F800802046611CCCB2F5
:100E3000AC4901F800A0601F08719146002006E04F
:100E4000A849095C494401F0FF09411CC8B2A0420D
:100E5000F6DB2046611CCCB2A24901F80090214685
:100E6000A048FFF719FBBDE8F087F8B505460E4628
:100E70000024AA222146641C9A4842540522214695
:100E8000641C4254AF222146641C42540522214670
:100E9000641C425400222146641C425400959DF873
:100EA00001202146641C42549DF800202146641C08
:100EB000425400969DF801202046611CCCB289491D
:100EC0000A549DF800202046611CCCB285490A5482
:100ED000601F08710027002005E08249095C394441
:100EE000CFB2411CC8B2A042F7DB2046611CCCB295
:100EF0007C490F5421467B48FFF7CEFAF8BD7FB5F9
:100F00000024AA222146641C764842540522214628
:100F1000641C4254AF222146641C425406222146DE
:100F2000641C425400222146641C42549DF8012056
:100F30002146641C42549DF800202146641C425402
:100F40009DF805202046611CCCB266490A549DF8E4
:100F500004202146601CC4B2624842549DF8092016
:100F60002046611CCCB25F490A549DF808202046F7
:100F7000611CCCB25B490A549DF80D202046611CCF
:100F8000CCB258490A549DF80C202046611CCCB2C2
:100F900054490A549DF821202046611CCCB2514985
:100FA0000A549DF820202046611CCCB24D490A54B9
:100FB0009DF825202046611CCCB24A490A549DF870
:100FC00024202146601CC4B2464842549DF8292082
:100FD0002046611CCCB243490A549DF82820204683
:100FE000611CCCB23F490A549DF82D202046611C5B
:100FF000CCB23C490A549DF82C202046611CCCB24E
:1010000038490A54601F08710025002005E0354961
:10101000095C2944CDB2411CC8B2A042F7DB20468E
:10102000611CCCB22F490D5421462E48FFF734FAEB
:101030007FBD7FB50024AA222146641C2948425462
:1010400005222146641C4254AF222146641C4254AE
:1010500003222146641C425400222146641C42544F
:101060009DF801202146641C42549DF80020214631
:10107000641C42549DF805202046611CCCB21949DD
:101080000A549DF804202046611CCCB215490A542C
:101090009DF809202046611CCCB212490A549DF8E3
:1010A00008202046611CCCB20E490A549DF80D2040
:1010B0002046611CCCB20B490A549DF80C202046F6
:1010C000611CCCB207490A549DF821202046611CBE
:1010D000CCB204490A549DF820202046611CCCB2B1
:1010E000004901E0460700200A549DF825202046CB
:1010F000611CCCB2FE490A549DF824202046611C94
:10110000CCB2FB490A549DF829202046611CCCB280
:10111000F7490A549DF828202046611CCCB2F449B6
:101120000A549DF82D202046611CCCB2F0490A5487
:101130009DF82C202046611CCCB2ED490A549DF844
:1011400031202146601CC4B2E94842549DF8302049
:101150002046611CCCB2E6490A549DF83520204651
:10116000611CCCB2E2490A549DF834202046611C2F
:10117000CCB2DF490A54601F08710025002005E049
:10118000DB49095C2944CDB2411CC8B2A042F7DB5F
:101190002046611CCCB2D6490D542146D448FFF7F5
:1011A0007BF97FBD2DE9FF4105461E46DDF8308005
:1011B0000024AA222146641CCD484254052221461F
:1011C000641C4254AF222146641C425442222146F0
:1011D000641C425400222146641C42542146641C73
:1011E00045549DF805202146641C42549DF8042076
:1011F0002046611CCCB2BE490A549DF80920204605
:10120000611CCCB2BA490A549DF808202046611CE2
:10121000CCB2B7490A542046611CCCB2B4490E5432
:101220009DF829202046611CCCB2B1490A549DF892
:1012300028202046611CCCB2AD490A549DF82D20CF
:101240002046611CCCB2AA490A549DF82C202046A5
:10125000611CCCB2A6490A542046611CCCB2A449F8
:1012600001F80080601F08710027002005E0A049F8
:10127000095C3944CFB2411CC8B2A042F7DB20461A
:10128000611CCCB29A490F5421469948FFF704F9E2
:10129000BDE8FF812DE9FF4105460E46DDF82880B7
:1012A0000024AA222146641C91484254052221466A
:1012B000641C4254AF222146641C42544122214600
:1012C000641C425400222146641C42542146641C82
:1012D00045542146641C46549DF809202046611C53
:1012E000CCB283490A549DF808202046611CCCB238
:1012F0007F490A549DF80D202046611CCCB27C49E0
:101300000A549DF80C202046611CCCB278490A543E
:101310002046611CCCB2764901F80080601F08713C
:101320000027002005E07249095C3944CFB2411C16
:10133000C8B2A042F7DB2046611CCCB26C490F5406
:1013400021466B48FFF7A8F8BDE8FF8137B50024B8
:10135000AA222146641C6648425405222146641C88
:101360004254AF222146641C425407222146641C89
:10137000425400222146641C42549DF80320214619
:10138000641C42549DF802202146641C42549DF87E
:1013900001202046611CCCB255490A549DF800201A
:1013A0002046611CCCB252490A549DF807202046C1
:1013B000611CCCB24E490A549DF806202046611C9F
:1013C000CCB24B490A549DF805202046611CCCB292
:1013D00047490A549DF804202046611CCCB2444978
:1013E0000A549DF809202046611CCCB240490A5499
:1013F0009DF808202046611CCCB23D490A54601F6C
:1014000008710025002005E03949095C2944CDB266
:10141000411CC8B2A042F7DB2046611CCCB2344963
:101420000D5421463248FFF737F83EBD2DE9F84FFD
:1014300005460E4617469846DDE90AAB0024AA2267
:101440002146641C2A48425405222146641C425409
:10145000AF222146641C425402222146641C42549D
:1014600000222146641C425400959DF8012021462B
:10147000641C42549DF800202146641C425400968E
:101480009DF801202046611CCCB219490A549DF8F0
:1014900000202046611CCCB215490A5400979DF8E3
:1014A00001202046611CCCB211490A549DF800204D
:1014B0002046611CCCB20E490A54CDF800809DF83C
:1014C00001202046611CCCB209490A549DF8002035
:1014D0002046611CCCB206490A54CDF800A09DF804
:1014E00001202046611CCCB201490A5402E00000F0
:1014F000460700209DF800202046611CCCB2FE4922
:101500000A54CDF800B09DF801202046611CCCB2F1
:10151000F9490A549DF800202146601CC4B2F648DF
:1015200042540C9800909DF801202046611CCCB2DA
:10153000F1490A549DF800202046611CCCB2EE49C6
:101540000A540D9800909DF801202046611CCCB2F1
:10155000E9490A549DF800202046611CCCB2E649B6
:101560000A540E9800909DF801202046611CCCB2D0
:10157000E1490A549DF800202046611CCCB2DE49A6
:101580000A54601F08714FF00009002006E0DA4994
:10159000095C494401F0FF09411CC8B2A042F6DBD6
:1015A0002046611CCCB2D44901F800902146D248B3
:1015B000FEF772FFBDE8F88F38B50024AA22214655
:1015C000641CCD48425405222146641C4254AF227B
:1015D0002146641C4254F1222146641C42540022DC
:1015E0002146641C4254C548808800909DF8012023
:1015F0002146641CC04842549DF800202146641CCA
:101600004254BE4890ED040ABDEEC00A10EE100A26
:1016100000B200909DF801202046611CCCB2B64972
:101620000A549DF800202046611CCCB2B2490A54ED
:10163000B24890ED060ABDEEC00A10EE100A00B2E4
:1016400000909DF801202046611CCCB2AA490A54A2
:101650009DF800202046611CCCB2A7490A54A74837
:1016600090ED080ABDEEC00A10EE100A00B200901C
:101670009DF801202046611CCCB29F490A549DF878
:1016800000202046611CCCB29B490A549B4890ED37
:101690000A0ABDEEC00A10EE100A00B200909DF8D2
:1016A00001202046611CCCB293490A549DF80020C9
:1016B0002046611CCCB290490A54904890ED0C0A27
:1016C000BDEEC00A10EE100A00B200909DF8012095
:1016D0002046611CCCB288490A549DF8002020465F
:1016E000611CCCB284490A54601F08710025002097
:1016F00005E08149095C2944CDB2411CC8B2A04231
:10170000F7DB2046611CCCB27B490D5421467A4858
:10171000FEF7C2FE38BD30B52DED048B81B0B0EEC2
:10172000408AF0EE608AB0EE419A0024AA22214657
:10173000641C7148425405222146641C4254AF2265
:101740002146641C42540B222146641C4254002250
:101750002146641C42549FED6A0A28EE000ABDEE41
:10176000C00A10EE100A00B200909DF80120214638
:10177000641C614842549DF800202146641C425478
:101780009FED5F0A28EE800ABDEEC00A10EE100A37
:1017900000B200909DF801202046611CCCB2564951
:1017A0000A549DF800202046611CCCB252490A54CC
:1017B0009FED530A29EE000ABDEEC00A10EE100A92
:1017C00000B200909DF801202046611CCCB24A492D
:1017D0000A549DF800202046611CCCB246490A54A8
:1017E000601F08710025002005E04349095C294479
:1017F000CDB2411CC8B2A042F7DB2046611CCCB27E
:101800003D490D5421463C48FEF746FE01B0BDEC73
:10181000048B30BD2DE9F0412DED048B82B0B0EE8C
:10182000408AF0EE608AB0EE419A05460E461746B1
:1018300000240095AA222146641C2F484254052208
:101840002146641C4254AF222146641C42540122AA
:101850002146641C425400222146641C42549FEDE0
:10186000290A28EE000ABDEEC00A10EE100A00B2E6
:1018700001909DF805202146641C1F4842549DF8A4
:1018800004202146641C42549FED1E0A28EE800A63
:10189000BDEEC00A10EE100A00B201909DF80520BE
:1018A0002146601CC4B2144842549DF804202046CE
:1018B000611CCCB210490A549FED120A29EE000AAD
:1018C000BDEEC00A10EE100A00B201909DF805208E
:1018D0002046611CCCB208490A549DF804202046D9
:1018E000611CCCB204490A549DF803202046611CB7
:1018F000CCB201490A5407E046070020E00F00205F
:10190000CDCCCC3D0000C8429DF802202146601C91
:10191000C4B2FE4842549DF801202146601CC4B266
:10192000FA4842549DF800202046611CCCB2F74989
:101930000A542046611CCCB2F4490E542046611C66
:10194000CCB2F2490F54601F08714FF0000800201C
:1019500006E0EE49095C414401F0FF08411CC8B2B1
:10196000A042F6DB2046611CCCB2E84901F80080B9
:101970002146E648FEF790FD02B0BDEC048BBDE8C1
:10198000F081E348C06C00EE100ADFEDE20A20EEC1
:10199000200ABDEEC00AE04880ED010ADC48006D77
:1019A00000EE100ADFEDDB0A20EE200ABDEEC00AD1
:1019B000D94880ED020AD648406D00EE100ADFEDEE
:1019C000D50A20EE200ABDEEC00AD34880ED030AF6
:1019D000CF48806D00EE100ADFEDCE0A20EE200A1F
:1019E000BDEEC00ACC4880ED040AC948C06D00EEC7
:1019F000100ADFEDC80A20EE200ABDEEC00AC64874
:101A000080ED050AC248006E00EE100ADFEDC10A43
:101A100020EE200ABDEEC00ABF4880ED060ABC4891
:101A2000406E00EE100ADFEDBB0A20EE200ABDEE8C
:101A3000C00AB94880ED070AB548806E00EE100A6A
:101A4000DFEDB40A20EE200ABDEEC00AB24880EDF8
:101A5000080AAF48C06E00EE100ADFEDAE0A20EEB5
:101A6000200ABDEEC00AAC4880ED090AA848006F04
:101A700000EE100ADFEDA70A20EE200ABDEEC00A34
:101A8000A54880ED0A0AA248406F00EE100ADFED7B
:101A9000A10A20EE200ABDEEC00A9F4880ED0B0A85
:101AA0009B48806F00EE100ADFED9A0A20EE200AB4
:101AB000BDEEC00A984880ED0C0A9548C06F00EE54
:101AC000100ADFED940A20EE200ABDEEC00A92480B
:101AD00080ED0D0A8E48D0F8800000EE100ADFED90
:101AE0008D0A20EE200ABDEEC00A8B4880ED0E0A5A
:101AF0008748D0F8840000EE100ADFED860A20EE59
:101B0000200ABDEEC00A844880ED0F0A8048D0F854
:101B1000880000EE100ADFED7F0A20EE200ABDEEFD
:101B2000C00A7D4880ED100A7948D0F88C0000EE9C
:101B3000100ADFED780A20EE200ABDEEC00A7648D2
:101B400080ED110A7248D0F8900000EE100ADFED27
:101B5000710A20EE200ABDEEC00A6F4880ED120A1D
:101B60006B48D0F8940000EE100ADFED6A0A20EE10
:101B7000200ABDEEC00A684880ED130A6448D0F818
:101B8000980000EE100ADFED630A20EE200ABDEE99
:101B9000C00A614880ED140A5D48D0F89C0000EE50
:101BA000100ADFED5C0A20EE200ABDEEC00A5A489A
:101BB00080ED150A5648D0F8A00000EE100ADFEDBF
:101BC000550A20EE200ABDEEC00A534880ED160AE1
:101BD0004F48D0F8A40000EE100ADFED4E0A20EEC8
:101BE000200ABDEEC00A4C4880ED170A4848D0F8DC
:101BF000A80000EE100ADFED470A20EE200ABDEE35
:101C0000C00A454880ED180A4148D0F8AC0000EE03
:101C1000100ADFED400A20EE200ABDEEC00A3E4861
:101C200080ED190A3A48D0F8B00000EE100ADFED56
:101C3000390A20EE200ABDEEC00A374880ED1A0AA4
:101C40003348D0F8B40000EE100ADFED320A20EE7F
:101C5000200ABDEEC00A304880ED1B0A2C48D0F89F
:101C6000B80000EE100ADFED2B0A20EE200ABDEED0
:101C7000C00A294880ED1C0A2548D0F8BC0000EEB7
:101C8000100ADFED240A20EE200ABDEEC00A224829
:101C900080ED1D0A1E48D0F8C00000EE100ADFEDEE
:101CA0001D0A20EE200ABDEEC00A1B4880ED1E0A68
:101CB0001748D0F8C40000EE100ADFED160A20EE37
:101CC000200ABDEEC00A144880ED1F0A1048D0F863
:101CD000C80000EE100ADFED0F0A20EE200ABDEE6C
:101CE000C00A0D4880ED200A0948D0F8CC0000EE6B
:101CF000100ADFED080A20EE200ABDEEC00A0648F1
:101D000080ED210A0248D0F8D00007E04607002005
:101D10003B17002000007A44A005002000EE100AC6
:101D20005FED040A20EE200ABDEEC00AFE4880EDF9
:101D3000220AFE48D0F8D40000EE100A5FED0B0A2C
:101D400020EE200ABDEEC00AF74880ED230AF748CE
:101D5000D0F8D80000EE100A5FED120A20EE200A3B
:101D6000BDEEC00AF04880ED240AF048807820B922
:101D70000020ED49C1F8F4000BE0EC488078012820
:101D800003D1E949C1F8F40003E00220E649C1F8B3
:101D9000F400E648D0F8DC0000EE100AF2EE040A87
:101DA00020EE200ABDEEC00ADF4880ED3F0ADF4882
:101DB000D0F8E00000EE100AF2EE040A20EE200A4D
:101DC000BDEEC00AD84880ED400AD848D0F8E400FB
:101DD00000EE100AF2EE040A20EE200ABDEEC00A60
:101DE000D14880ED410AD148D0F8E80000EE100A51
:101DF000BDEEC00ACC4880ED450ACC48D0F8EC00D6
:101E000000EE100ABDEEC00AC74880ED460AC7487A
:101E1000D0F8F00000EE100ABDEEC00AC24880ED16
:101E2000470AC248D0F8F40000EE100ABDEEC00A1E
:101E3000BD4880ED3E0ABD48C07820B90020BA49AF
:101E4000C1F8200103E00120B749C1F82001704723
:101E500031B582B00024BDF80800642800DD3EBD25
:101E6000FFF78FFDB048BDF8081050F82100019031
:101E7000AA222046611CCCB2AD490A540522204654
:101E8000611CCCB2AA490A54AF222046611CCCB2D4
:101E9000A7490A54E1222046611CCCB2A4490A5445
:101EA00000222046611CCCB2A1490A549DF80920A9
:101EB0002046611CCCB29E490A549DF80820204659
:101EC000611CCCB29A490A549DF807202046611C37
:101ED000CCB297490A549DF806202146601CC4B232
:101EE000934842549DF805202046611CCCB290498D
:101EF0000A549DF804202146601CC4B28C48425408
:101F0000601F8B4908710025002005E08849095CA5
:101F10002944CDB2411CC8B2A042F7DB2046611C67
:101F2000CCB283490D5421468148FEF7B5FA00BF73
:101F300095E77FB505460024AA222146641C7C480B
:101F4000425405222146641C4254AF222146641C9F
:101F5000425400222146641C42542146641C4254CF
:101F60002146641C45549DF805202146641C4254BA
:101F70009DF804202046611CCCB26D490A549DF89E
:101F800009202146601CC4B2694842549DF80820CB
:101F90002046611CCCB266490A549DF80D202046AB
:101FA000611CCCB262490A549DF80C202046611C89
:101FB000CCB25F490A549DF821202046611CCCB266
:101FC0005B490A549DF820202046611CCCB2584938
:101FD0000A54601F08710026002005E05449095C7E
:101FE0003144CEB2411CC8B2A042F7DB2046611C8E
:101FF000CCB24F490E5421464D48FEF74DFA7FBDF5
:1020000030B58BB04B4800884B49098890FBF1F202
:1020100001FB120148480088401E814202D1012084
:1020200046494871434800884549098890FBF1F2C8
:1020300001FB120142480088401E814202D101206A
:102040003E4988713B4800883E49098890FBF1F27F
:1020500001FB12013B480088801E814202D1012011
:102060003649C872334800883749098890FBF1F235
:1020700001FB120134480088401E814202D1012038
:102080002E4908712B4800883049098890FBF1F2ED
:1020900001FB12012D480088401E814202D101201F
:1020A0002649C871234800882949098890FBF1F224
:1020B00001FB120126480088801E814202D10120C6
:1020C0001E4948721B4800882249098890FBF1F29A
:1020D00001FB12011F480088801E814202D10120AD
:1020E00016498872134800881B49098890FBF1F251
:1020F00001FB120118480088C01E814202D1012054
:102100000E4908730B4800881449098890FBF1F2C6
:1021100001FB120111480088801E814202D101207A
:102120000649487303481BE0A00500203B17002028
:10213000460700205C0000205E00002030070020E1
:102140006000002062000020640000206600002083
:10215000680000206A0000206C0000206E00002053
:102160000088FA49098890FBF1F201FB1201F74857
:102170000088801E814202D10120F5490870F5488F
:102180000088F549098890FBF1F201FB1201F24841
:102190000088C01E814202D10120F0498873ED48B9
:1021A0000088401C80B2EB490880B0F57A7F01DDE1
:1021B00000200880E948C07860B10020E749C87075
:1021C0004FF4C87364224FF4967100900420FFF717
:1021D000B0FE89E1E148808A4FF6FF71884208DA53
:1021E000DE49888AFFF734FE4FF6FF70DB498882AC
:1021F0007AE1DA480079F0B10020D8490871D84B6B
:102200005A7B5B7E5B1CD9B2D64BD3ED051AFDEE33
:10221000E11A11EE900AD44BD3ED391AB0EE611ADF
:10222000D3ED381AF0EE610AD3ED371AB0EE610A39
:10223000FFF7F0FA58E1C948007B90B10020C74988
:102240000873CA48D0ED051AB0EE611AD0ED031A32
:10225000F0EE610AD0ED041AB0EE610AFFF75BFA06
:1022600042E1BE48C07A28B10020BC49C872FFF7DD
:10227000A3F939E1B948407980B30020B7494871E2
:10228000BB48B0F90620B0F90410B0F90200B94B10
:1022900093ED0B0ABDEEC00A10EE103A1BB2CDE969
:1022A0000130CDE90312B34890ED0A0ABDEEC00A31
:1022B00010EE100A00B2AF4C009094ED090ABDEE8A
:1022C000C00A10EE104A23B2AA4CB4F91420B4F993
:1022D0001210B4F91000FFF7A9F805E1FFE79F48D5
:1022E0008079A8B100209D498871A24890ED130A19
:1022F000F2EE040A20EE200ABDEEC00A10EE100A2B
:1023000002B29D4801889D480068FFF71FF8EBE086
:102310008F48007880B300208D4908708F48C07BBB
:1023200078B100208D49C8739548807A944C00900C
:10233000B4F90830B4F9062061792079FEF7AAFFD4
:10234000D2E08648007C00288AD0002083490874A7
:102350008B48017EB0F91600894AB2F91420884CE6
:10236000CDE900200291A37CB4F91020B4F90E103D
:10237000207BFEF717FFB7E0FFE77848C079E0B3AE
:1023800000207649C87100BF15E0012181407D4AD7
:102390001278114049B17C4931F8101001F2DC513A
:1023A00009B207AA22F8101003E0002107AA22F8B8
:1023B0001010411CC8B20828E7DB0022BDF82A0033
:1023C00080B2BDF8281089B2CDE9030205920291CE
:1023D000BDF8260080B2BDF8241089B2CDE9001006
:1023E000BDF81E40A3B2BDF81C40A2B2BDF8224009
:1023F000A1B2BDF82040A0B200E002E0FEF719FE55
:1024000072E05648407AA8B10020544948720090C2
:10241000019002905D4C0390E488A3B25B4CA488C9
:10242000A2B25A4C6488A1B2584C2488A0B2FEF7DC
:1024300066FD59E04948807A90B10020474988728A
:10244000534991ED000ADFED530A20EE200ABCEE5D
:10245000C00A10EE101A88B20021FEF706FD43E014
:102460003E48407B68B100203C4948734A48C078E8
:10247000494C0090A379E2796179A078FEF7A6FC37
:1024800032E03648807B38B30020344988734348B3
:1024900090ED021BB0EE410AF0EE610A51EC100B18
:1024A00017F022FC04463D4890ED041BB0EE410AB3
:1024B000F0EE610A51EC100B17F016FC0546374A96
:1024C0001178354A5079DFED360A9FED360A2346FA
:1024D0002A46FEF7BAFB07E02048407C20B1FEF711
:1024E0007CFB00201D494874FEF768FB00F033FFB9
:1024F0000BB030BD2C49097839B9AA2805D1012182
:10250000294A11702949087096E02749097801295C
:1025100007D1AF2805D10221234A11702349487001
:102520008AE021490978022905D103211E4A117048
:102530001E49887080E01C490978032938D104219C
:10254000194A11701949C87076E000007000002027
:10255000740000205C000020720000203007002082
:10256000E4100020AC1100204C010020D416002003
:10257000980300200012002008040020D803002047
:10258000622E0020790000208C080020AC0300207F
:10259000C00300200000C84236010020182D002092
:1025A0000000E4430000F642760000207807002097
:1025B0007249097804290AD10521704A11707049BD
:1025C00008717049087000216F4A117034E06B493E
:1025D000097805291DD16B490978002919DD694958
:1025E0000978502915DA67490978491E654A11703A
:1025F00065490978644A1278521C634B1A70491D68
:102600005F4A50545F490978B1B906215B4A11709D
:1026100012E05A49097806290BD10021574A117056
:1026200059490978491D564A50540121574A117099
:1026300002E00021514A117070472DE9F041054632
:102640000024AA222146641C5148425405222146F6
:10265000641C4254AF222146641C4254A0222146ED
:10266000641C425400222146641C425400270BE0A3
:102670003846791CCFB22A5C2046611CCCB2444952
:102680000A54322C00DD02E0E85D0028F0D100BFE2
:10269000601F3F4908710026002005E03C49095CA5
:1026A0003144CEB2411CC8B2A042F7DB2046611CC7
:1026B000CCB237490E5421463548FDF7EDFEBDE852
:1026C000F0812DE9F34105460024AA222146641C2D
:1026D0002F48425405222146641C4254AF22214611
:1026E000641C4254A1222146641C4254002221460B
:1026F000641C42549DF807202146641C42549DF8F6
:1027000006202146641C42549DF805202046611C89
:10271000CCB21F490A549DF804202046611CCCB25B
:102720001B490A5400270BE03846791CCFB22A5CBB
:102730002046611CCCB216490A54322C00DD02E05E
:10274000E85D0028F0D100BF601F11490871002624
:10275000002005E00E49095C3144CEB2411CC8B2EC
:10276000A042F7DB2046611CCCB209490E54214639
:102770000748FDF791FEBDE8FC81000076000020CF
:102780007807002075000020580000205900002024
:102790004607002010B5FE488078FE4908700846BC
:1027A0000078022802D10CF03BFC03E0F9480078E5
:1027B00008F0F4FB10BD002801DC002104E007282C
:1027C00001DD072100E0014608460021F24A22F817
:1027D00010107047014600201DE0EF4A32F810202B
:1027E000B2F5FA7F0EDAEC4A32F810200A44EA4BCE
:1027F00023F8102001228240E84B1B781A43E74B54
:102800001A7006E001228240E44B1B789343E34AAE
:102810001370421CD0B20828DFDB704770B5DDE9C9
:1028200004452BB10E882EB10E8806440E8001E0BF
:1028300001260E800E88964202DB2C7000260E8048
:1028400070BD7CB50546D6480079022824DCD54801
:10285000407808BBD4484078B8B1D3480078A0B1DC
:10286000D148C07850B1CE48407818B10020CC494A
:10287000C87214E00120CA49C87210E00120CB4997
:1028800048720220C649C87209E00120C749C871D0
:102890000320C349C87202E00420C149C872C0487D
:1028A000407B002831D1BE48007B002837D0BC488F
:1028B000C07A38B9BA48007BB9494873BCA0FFF761
:1028C000BCFE2CE00020B64908730846C07A0128F7
:1028D00003D1BAA0FFF7B1FE21E0B148C07A0228C7
:1028E00003D1B6A0FFF7A9FE19E0AD48C07A0328CE
:1028F00003D1B2A0FFF7A1FE11E0A948C07A0428D5
:102900000DD1B2A0FFF799FE09E0A548007B10B9F0
:10291000B4A0FFF792FEA248007BA1494873B648D5
:10292000B0F9040010F5967F7DDAB348B0F90600DF
:10293000002803DDB048B0F9060003E0AE48B0F966
:102940000600404200EE100AB8EEC00AF3EE0E0A8E
:10295000B4EEE00AF1EE10FA14DDA748B0F9020077
:1029600000EE100AB8EEC00AFBEE0E0AB4EEE00A62
:10297000F1EE10FA06D28A48C07B30B901208849AE
:10298000C87302E000208649C8739B48B0F9020072
:1029900010F5967F12DA9848B0F90000B0F5967FEE
:1029A0000CDD9548B0F9060010F5967F06DA012097
:1029B0009249087002207A49C8731BE08E48B0F92A
:1029C000020010F5967F12DA8B48B0F9000010F57E
:1029D000967F0CDA8848B0F90600B0F5967F06DDE0
:1029E00001208649087002206D49C87302E000206A
:1029F0008249087000246A48407B28B100BF4FF428
:102A00007A707F49088003E00224C8207C4908804E
:102A100063480C30CDE90040784803787848028854
:102A20007849284600E002E0FFF7F8FE08E00020C1
:102A30005B49C8730846007B022801D10120087356
:102A40006D48B0F9040010F5AF7F03DD0020544954
:102A5000887302E00120524988737CBD002005E0A4
:102A60000021654A22F81010411CC8B20428F7DB87
:102A70006148B0F90400002802DD00205E4988802A
:102A800000205D4908804880C8804548407B48B1A7
:102A90005D48407918B903204149487502E001209A
:102AA0003F490872704700B50346584800881844EB
:102AB0005649088008460088B0F5FA7F45DB0020BB
:102AC00008803648007800F00F000F2802D1344803
:102AD000807930B14E480078401C40B24C490870B3
:102AE00005E04B480078401E40B24949087048480C
:102AF00090F9000002280ADB0020454908700120F7
:102B00002749C8712949C872FFF7A8FF16E0404855
:102B100090F9000010F1020F10DC00203C49087011
:102B20001F48C07950B100201D49C8711F49C872A3
:102B30001B48007C10B102201949487535480088AF
:102B40003549088000203349088000BDF0B505AC48
:102B500070CC5CB100270F80CF788FB98F7817B118
:102B60008F787F1C8F700127CF7009E00027CF700E
:102B70000F8807440F800F889F4201DD01278F7067
:102B80008F78974202DD357000278F70F0BD00000E
:102B90003B170020780000207808002079000020F2
:102BA000E41000203A040020181100202C17002007
:102BB000556E6C6F636B204F4B210000556E6C6F30
:102BC000636B204661696C2100000000506F7765DF
:102BD00072204C6F772C556E6C6F636B2046616969
:102BE0006C210000204643204F7574707574204C92
:102BF0006F636B65642120008C0800207E0000203C
:102C0000800000207C00002036010020940000207D
:102C1000960000207A000020820000201EB50446A5
:102C2000BD48407B00286ED1BB48807B002873D014
:102C3000BA48B0F9020010F5AF7F17DAB748B0F91B
:102C40000000B0F5AF7F11DDB448B0F9040010F515
:102C5000AF7F0BDAB148B0F90600B0F5AF7F05DD04
:102C60000120AF490870AF49087004E00020AC496A
:102C70000870AC490870A948B0F90200B0F5AF7F00
:102C800015DDA648B0F90000B0F5AF7F0FDDA34811
:102C9000B0F9040010F5AF7F09DAA048B0F90600DA
:102CA00010F5AF7F03DA01209F49087002E0002091
:102CB0009D4908709948B0F90200B0F5AF7F15DD65
:102CC0009648B0F90000B0F5AF7F0FDD9348B0F93A
:102CD000040010F5AF7F09DA9048B0F90600B0F5AE
:102CE000AF7F03DD01209149087002E000208F4989
:102CF00008708A48B0F90200B0F5AF7F04DD01200A
:102D00008B49087008E02EE08448B0F902003228B0
:102D100002DA00208649087086480121CDE90010BA
:102D2000804803784FF47A7283492046FFF776FD96
:102D30008048401E0121CDE90010794803784FF406
:102D40007A727E492046FFF769FD7D480121784A65
:102D500012784FF47A73CDE9002102900522794967
:102D60002046FFF7F3FE1EBD10B504466A48007802
:102D7000002871D07448007898BB00203AE0012107
:102D80008140724A12781140B1B1714931F8101086
:102D900009B2A1F2DC5100EE101AB8EEC00AF7EE4B
:102DA000040A20EE200ABDEEC00A10EE101A09B285
:102DB0005A4A22F8101003E00021584A22F8101055
:102DC000564931F9101011F5FA7F01DC61490CE028
:102DD000524931F91010B1F5FA7F03DD4FF4FA7161
:102DE00003E00AE04D4931F910104C4A22F8101066
:102DF000411CC8B20828C2DB81E053480078012892
:102E00003FD100203AE001218140504A1278114020
:102E1000B1B1514931F8101009B2A1F24C4100EEA4
:102E2000101AB8EEC00AF7EE040A20EE200ABDEE32
:102E3000C00A10EE101A09B2384A22F8101003E046
:102E40000021364A22F81010344931F9101011F5DA
:102E5000FA7F02DC3F490CE05DE0304931F91010A7
:102E6000B1F5FA7F02DD4FF4FA7102E02B4931F936
:102E700010102A4A22F81010411CC8B20828C2DBE0
:102E80003DE0002039E001218140304A12781140B4
:102E9000B1B1324931F8101009B2A1F5806100EEEC
:102EA000101AB8EEC00ADFED2E0A20EE200ABDEEA1
:102EB000C00A10EE101A09B2184A22F8101003E0E6
:102EC0000021164A22F81010144931F9101011F59A
:102ED000FA7F01DC1F490BE0104931F91010B1F500
:102EE000FA7F02DD4FF4FA7102E00C4931F910105B
:102EF0000A4A22F81010411CC8B20828C3DB204639
:102F0000FFF79FFC2046FFF789FE2046FFF762FC93
:102F10002046FFF7C8FD10BDE41000208C080020FB
:102F20008F0000208E0000209000002091000020E3
:102F30009200002001120020840000208600002062
:102F4000980300208A0000207800002079000020EB
:102F50003C2700200CFEFFFF4C2700200C2E0020F9
:102F60006666263F014600201AE0B74A125C72B935
:102F7000B64A32F8102042F210739A420BDAB34A82
:102F800032F810200A44B14B23F8102003E000224D
:102F9000AE4B23F810200022AB4B1A54421CD0B287
:102FA0000228E2DBA9480088B0F57A7F04DCA74854
:102FB0004088B0F57A7F03DD0020A54AD07102E099
:102FC0000120A34AD071704710B504462046FFF790
:102FD000C9FF10BD10B50023002204E0845C1C442E
:102FE000E3B2541CE2B24C1E9442F7DC421812F8D1
:102FF000012C9A4200D010BDC278512A3AD14279B0
:1030000072B98279934C2270C27952B2924C22707A
:10301000027A52B2914C2270427A914C227029E08D
:103020004279012A26D182798A4C2270C279120211
:1030300012B2047A22438B4C2280427A120212B2DC
:10304000847A2243884C2280C27A120212B2047B14
:103050002243864C2280427B120212B2847B22439E
:10306000834C2280C27C7E4C22700122764C2270DE
:10307000804C2270C278522A14D142794AB9C2795E
:10308000847942EA04227C4C228001226E4C6270D8
:1030900008E04279012A05D1C279847942EA042202
:1030A000764C2280C278532A59D1427952BB827918
:1030B000120212B2C4792243714C2280027A1202A7
:1030C00012B2447A22436F4C2280827A120212B2E8
:1030D000C47A22436C4C2280027B120212B2447BDF
:1030E00022436A4C2280827B120212B2C47B2243AA
:1030F000674C2280027C120212B2447C2243654C4F
:1031000022802CE04279012A29D18279120212B25E
:10311000C4792243604C2280027A120212B2447AAD
:1031200022435E4C2280827A120212B2C47A224377
:103130005B4C2280027B120212B2447B2243594C28
:103140002280827B120212B2C47B2243564C228020
:10315000027C120212B2447C2243544C228000BFF3
:1031600049E710B504465248007838B9AA2C05D171
:1031700001204F4908704F48047063E04C480078C4
:10318000012807D1222C05D102204949087049485D
:10319000447057E046480078022805D1032044498E
:1031A0000870444884704DE041480078032805D1F8
:1031B00004203F4908703F48C47043E03C48007811
:1031C00004280AD105203A4908703A4804713A485F
:1031D000047000203949087034E03548007805282B
:1031E00019D135480078002815DD33480078401E95
:1031F000314908703148007830490978491C2F4A14
:103200001170401D2B490C542B480078D0B9062072
:103210002749087016E02648007806280FD10020BC
:103220002349087025480078401D22490C54234842
:103230000078801DC1B21F48FFF7CCFE02E00020DD
:103240001B49087010BD0000DE000020E0000020D7
:1032500018110020980000209A0000209B000020F8
:10326000990000209C0000209E000020A00000206B
:10327000A200002054000020A4000020A60000208E
:10328000A8000020AA000020AC000020B40000200C
:10329000B6000020B8000020AE000020B0000020E2
:1032A000B2000020BA000020BC000020BE000020B8
:1032B000E50000209C080020E4000020DC00002045
:1032C000704700BFFEE700BFFEE700BFFEE77047A4
:1032D000704710B580200EF0A2FE10B180200EF0D5
:1032E000F4FE10BD10B508F02EF810BD10B508F0B2
:1032F00075F910BD10B50BF09DFB10BD10B508F0B1
:1033000072FD10BD10B508F040FE10BD10B508F0FC
:10331000F8FE10BD10B508F0DCFF10BD10B50BF0C5
:10332000BCFF10BD10B515F0B1FA012015F0B9FAC7
:1033300010BD70B5024600200AE0145C864B1D7873
:103340001B785B1C844E3370844B5C55431CD8B295
:103350008842F2DB70BD10B57F480078804909785B
:1033600088425BDD7C4800787D490978401A3F2817
:103370001BDB00207B4908703F207B490870002040
:103380000BE077490A780978491C754B1970734925
:103390008A5C754B411C5A54C8B23F28F1DB40226D
:1033A0007149002016F0FDFA9FE06E480078401C3D
:1033B0006C490870084600786C4909788842F3D156
:1033C0000020684908706448007865490978401A07
:1033D00065490870002015E05F490978604A127855
:1033E000891A814208DD5E49097801445B4A525CD2
:1033F0005D4B411C5A5403E000225B4B411C5A5464
:10340000411CC8B23F28E7DB534800785449087094
:1034100040225549002016F0C4FA66E04E48007874
:103420004F490978884260DA4D480078C0F58070CD
:103430004949097808443F281BDB002049490870A6
:103440003F204949087000200BE045490A78097877
:10345000491C434B197041498A5C434B411C5A54E7
:10346000C8B23F28F1DB40223F49002016F099FA0C
:103470003BE03C480078401C3A4908700846007818
:103480003A490978884230D10020364908703448DA
:1034900000784042304909780844334908700020D8
:1034A00018E02F490978C1F580712B4A1278114430
:1034B000814209DD2A4909780144C9B2274A525C90
:1034C000294B411C5A5403E00022274B411C5A54FB
:1034D000411CC8B23F28E4DB1F480078204908702F
:1034E00040222149002016F05CFA10BD10B50446B8
:1034F000012C02D0032C11D10EE059B923B1012BBC
:1035000005D0022B04D100E000BF402010BD00BF59
:1035100000BF00BF00BF01E00120F7E700BF0020AF
:10352000F4E72DE9F0470646884614469946089F79
:10353000022E02D0032E0CD10AE0012504E0605DCA
:10354000FEF7D8FF681CC5B22078A842F7DA00E081
:1035500000BF00BFBDE8F087E8000020CE080020D3
:10356000E7000020E9000020CE090020E60000204E
:1035700016F00AB9704700207047002070470020FD
:1035800070470020704700207047002070470020DF
:1035900070470020704700207047002070470020CF
:1035A000704700207047002070470020704716F0D9
:1035B00012B97047002070470020704715F056BFC1
:1035C000704700000179C27801EB0221F94A1180AD
:1035D0008179427901EB0221F74A11808178F74A1B
:1035E000517070470020F649087000BF28E003289A
:1035F00018DA9FEDF40AF1492C3101EB800181EDDD
:10360000000A9FEDF00AED49383101EB800181EDB0
:10361000000A9FEDEC0AE949443101EB800181ED9C
:10362000000A03E00021E54AA2F850100022E34915
:10363000143141F82020103941F82020411CC8B233
:103640000428D4DB704710B50446DC484178807804
:1036500081421BD0FFF7C6FFDB48C07968B9DA4862
:10366000407E012809D1D948807810B9D7484079DF
:1036700018B10120D149087008E00020CF49087036
:10368000D3A0FEF7DAFF0020CC494870CB48407841
:10369000062878D006DC062876D2DFE800F0751020
:1036A0003858B5F6092870D004DC07286ED00828F1
:1036B0006AD179E20A286AD0A028F9D13BE0BF4854
:1036C000007818B3C048407D58B9BD480078E8B9C3
:1036D0000120BB490870C2A0FEF7AFFF04F0BFFC99
:1036E00014E0B948407D022806D1C0A0FEF7A5FF2E
:1036F0000020B249487009E0B348407D022805DD4A
:10370000BEA0FEF79AFF0020AC49487051E3AE48D6
:10371000407D022805D1BCA0FEF78FFF04F0AEFC6F
:1037200008E0A948407D28B9BAA0FEF786FF00202E
:10373000A24948703DE3A448407B38B1B8A0FEF7E9
:103740007CFF0020A04908739C49487031E39A48E7
:10375000008800EE100AB8EE400A984880ED0D0A85
:1037600095480088A0B3934800884FF47A71484385
:1037700000EE100AF8EEC00A8F480088002807DC27
:103780009FED900A1CE0F6E012E366E2B4E1B9E2D4
:10379000A84890ED011A8848008800EE100AB8EE9B
:1037A000400AB4EEC01AF1EE10FA03D2A14890ED2F
:1037B000010A05E08048008800EE100AB8EE400AD1
:1037C00080EE801ABCEEC10A7C4880ED070A03E057
:1037D000FFE700217948C1617848C06818B996A010
:1037E000FEF72BFF0AE07548C169C068814205D227
:1037F00093A0FEF722FF0020704948706F48C06810
:1038000001196E48C160D4E26B480088404200EE66
:10381000100AB8EEC00A694880ED0D0A66480088B3
:10382000A0B3644800884FF47A71484300EE100A50
:10383000F8EEC00A60480088002802DC9FED610AAB
:103840001BE07C4890ED020AB1EE401A5A4800880D
:1038500000EE100AB8EE400AB4EEC01AF1EE10FA0B
:1038600005D2744890ED020AB1EE400A05E05248D4
:10387000008800EE100AB8EE400A80EE801ABCEE16
:10388000C10A4E4880ED070A04E01BE0FFE7002173
:103890004A48C1614948C06818B96CA0FEF7CDFE1E
:1038A0000AE04648C169C068814205D26AA0FEF7B5
:1038B000C4FE0020414948704048C06801193F4893
:1038C000C16076E23C48008800EE100AB8EE400A7B
:1038D0003A4880ED0B0A3848008878B335480088AC
:1038E0004FF47A71484300EE100AF8EEC00A3248ED
:1038F0000088002802DC9FED330A17E04D4890ED68
:10390000001A2D48008800EE100AB8EE400AB4EE06
:10391000C01AF1EE10FA03D2464890ED000A05E015
:103920002548008800EE100AB8EE400A80EE801AA2
:10393000BCEEC10A214880ED050A03E0FFE7002044
:103940001E4948611D48406818B946A0FEF775FE3B
:103950000BE01A48406919494968884205D244A0D9
:10396000FEF76BFE0020154948701448406820445B
:10397000124948601DE210480088404200EE100ADB
:10398000B8EEC00A0D4880ED0B0A0B48008878B1EC
:10399000084800884FF47A71484300EE100AF8EEA8
:1039A000C00A0548008800286ADC9FED060A7FE00F
:1039B00086E065E0F4000020F6000020300D0020D5
:1039C000F800002000000000E41000203601002074
:1039D0004643205374617465204572726F722100F2
:1039E00054616B65206F66662100000054616B6551
:1039F000206F6666204F4B2100000000434D44209D
:103A00004572726F722100004C616E64696E6721AD
:103A1000000000004C616E64696E67204F4B21000E
:103A2000456D657267656E63792073746F70204FA2
:103A30004B21000008110020476F20757021000005
:103A4000476F207570204F4B21000000476F2064A6
:103A50006F776E2100000000476F20646F776E2043
:103A60004F4B2100476F20616865616421000000B1
:103A7000476F206168656164204F4B2100000000A2
:103A8000E54890ED001AE548008800EE100AB8EE0F
:103A9000400AB4EEC01AF1EE10FA03D2DE4890EDFF
:103AA000000A05E0DD48008800EE100AB8EE400A82
:103AB00080EE801ABCEEC10AD94880ED050A02E00A
:103AC0000020D7494861D648406818B9D5A0FEF70C
:103AD000B4FD0BE0D2484069D1494968884205D21B
:103AE000D3A0FEF7AAFD0020CD494870CC4840681D
:103AF0002044CB4948605CE1C848008800EE100AC9
:103B0000B8EE400AC64880ED0C0AC448008878B375
:103B1000CA4800884FF47A71484300EE100AF8EE64
:103B2000C00ABE480088002802DC1FED5A0A17E0D0
:103B3000B94890ED001AB948008800EE100AB8EEB6
:103B4000400AB4EEC01AF1EE10FA03D2B24890ED7A
:103B5000000A05E0B148008800EE100AB8EE400AFD
:103B600080EE801ABCEEC10AAD4880ED060A03E083
:103B7000FFE70021AA488161A948806818B9B0A070
:103B8000FEF75BFD0AE0A64881698068814205D2A4
:103B9000AEA0FEF752FD0020A1494870A048806801
:103BA00001199F48816004E19C480088404200EE72
:103BB000100AB8EEC00A9A4880ED0C0A97480088AF
:103BC00078B39E4800884FF47A71484300EE100A9B
:103BD000F8EEC00A91480088002802DC1FED870A31
:103BE00017E08D4890ED001A8C48008800EE100A0E
:103BF000B8EE400AB4EEC01AF1EE10FA03D28648CD
:103C000090ED000A05E08548008800EE100AB8EE45
:103C1000400A80EE801ABCEEC10A814880ED060A97
:103C200003E0FFE700217E4881617D48806818B984
:103C300089A0FEF702FD0AE0794881698068814227
:103C400005D288A0FEF7F9FC002075494870744839
:103C50008068011972488160ABE07048008800B24A
:103C60006F49A1F850006D48008878B37348008808
:103C70004FF47A71484300EE100AF8EEC00A674824
:103C80000088002802DC1FEDB10A17E0624890EDC1
:103C9000031A6248008800EE100AB8EE400AB4EE3B
:103CA000C01AF1EE10FA03D25B4890ED030A05E06A
:103CB0005A48008800EE100AB8EE400A80EE801ADA
:103CC000BCEEC10A564880ED080A03E0FFE7002178
:103CD000534801625248006918B966A0FEF7ADFC6E
:103CE0000AE04F48016A0069814205D264A0FEF7EC
:103CF000A4FC00204A494870494800690119484815
:103D0000016156E045480088404200B24449A1F8AC
:103D100050004248008878B3484800884FF47A71D0
:103D2000484300EE100AF8EEC00A3C48008800281C
:103D300002DC1FEDDC0A17E0374890ED031A374824
:103D4000008800EE100AB8EE400AB4EEC01AF1EE98
:103D500010FA03D2304890ED030A05E02F4800889E
:103D600000EE100AB8EE400A80EE801ABCEEC10ADE
:103D70002B4880ED080A03E0FFE700212848016294
:103D80002748006918B942A0FEF757FC0AE024480A
:103D9000016A0069814205D240A0FEF74EFC002076
:103DA0001F4948701E48006901191D48016100E063
:103DB00000BF00BF1A48407808B9FFF713FC184845
:103DC000417881703948407BB0B1154A3832A2F150
:103DD000140101F1080001F0ACF9114A44323449F0
:103DE000A2F10C0001F086F90D4890ED0D0A80ED6E
:103DF000100A80ED130A0DE02D48343890ED0D0ABD
:103E0000074880ED090A2A48343890ED0E0A044824
:103E100080ED0A0A10BD000008110020F600002005
:103E2000300D0020476F206261636B2100000000AD
:103E3000476F206261636B204F4B2100F40000202C
:103E4000476F206C6566742100000000476F206C8E
:103E5000656674204F4B2100476F20726967687454
:103E600021000000476F207269676874204F4B2162
:103E7000000000005475726E206C656674210000AD
:103E80005475726E206C656674204F4B21000000E3
:103E90005475726E20726967687421005475726E71
:103EA000207269676874204F4B210000E4100020E5
:103EB00080010020AA49097839B9AA2805D1012131
:103EC000A74A1170A749087070E0A549097801292F
:103ED00007D1302805D10221A14A1170A1494870AB
:103EE00064E09F490978022905D103219C4A117099
:103EF0009C4988705AE09A490978032905D1042120
:103F0000974A11709749C87050E09549097804297B
:103F10000AD10521924A117092490871924908709C
:103F20000521924A117041E08D490978052917D180
:103F30008D490978002913DD8B490978491E8A4A81
:103F400011708A490A780978491C884B197085498B
:103F500088548549097829BB0621814A117025E0DA
:103F60007F49097806291ED100217D4A11707D49BB
:103F70007E4A127888547E49097899B9002105E073
:103F8000784A525C7B4B5A544A1CD1B2774A127819
:103F90009142F5DD75490978491C774A1170012174
:103FA000734A117002E000216D4A1170704701469A
:103FB0006F48007800287DD000206D4B18700022DB
:103FC00000BF05E06B4B1B5C1344DAB2431CD8B254
:103FD000694B1B785B1E8342F4DC6648664B1B789A
:103FE000184410F8010C904200D070476148C07826
:103FF000312875D05F48C078322871D15D48C079CA
:104000005C4B9B7940EA032000B200EE100AB8EE48
:10401000C00AB1EE400ADFED590A80EE201A584876
:1040200080ED041A5348407A524B1B7A40EA032031
:1040300000B200EE100AB8EEC00ADFED500A80EEC2
:10404000201A4F4880ED031A4A48C07A494B9B7AA0
:1040500040EA032000B200EE100AB8EEC00ADFED1D
:10406000470A80EE201A464880ED051A4148407BF9
:10407000404B1B7B40EA032000B200EE100AB8EE72
:10408000C00AB1EE400ADFED3D0A80EE201A3C483E
:1040900080ED071A3748C07B364B9B7B40EA0320F4
:1040A00000B200EE100AB8EEC00ADFED340A80EE6E
:1040B000201A00E018E0324880ED061A2D48407CB6
:1040C0002C4B1B7C40EA032000B200EE100AB8EE35
:1040D000C00ADFED2A0A80EE201A294880ED081A6E
:1040E0000020284B188000BF26480088B0F57A7F52
:1040F00008DA244800880844224A10800120204A17
:10410000507002E000201E4A507000BF6DE710B5ED
:1041100004461D48407B78B90020194908701B48A7
:1041200090ED0D0A084680ED010A184890ED0E0A40
:10413000084680ED020A02E0012011490870104A89
:104140002432A2F1200101F1080000F0F2FF0C4A34
:104150003032A2F12C0101F1140000F0EAFF10BD91
:10416000FF000020C00E0020FE0000200001002003
:10417000FB000020C00D0020FA0000200000C84213
:10418000840D0020FC000020E41000204C010020E1
:1041900090ED002ADFEDFC2A22EE222AF7EE002A1B
:1041A00082EE823AB7EE002A33EE022AB7EE003AE8
:1041B000C3EE022AF54991ED002A30EE423A91ED24
:1041C000002A02EE832A81ED002A90ED002ADFED1D
:1041D000EE2A22EE222AF7EE002A82EE823AB7EE8B
:1041E000002A33EE022AB7EE003AC3EE022A91ED1E
:1041F000012A30EEC23A91ED012A02EE832A81EDC6
:10420000012A91ED002ADFEDE22A22EE222AE1497D
:1042100081ED002ADD4991ED012ADFEDDD2A22EE54
:10422000222ADC4981ED012A90ED002ADFEDD62A11
:1042300062EE222AB7EE003A83EE222AF7EE002A37
:1042400032EE222AB7EE003AC3EE022AD24991EDAD
:10425000082A31EE423A91ED082A02EE832A81EDD6
:10426000082A90ED002ADFEDC82A22EE222AB7EEB6
:10427000003AC3EE022AB7EE002A32EE822AB7EEE7
:10428000003AC3EE022A91ED092A31EEC23A91EDCD
:10429000092A02EE832A81ED092A002117E0BE4A8D
:1042A000283202EB810292ED002ABB4A203202EB57
:1042B0008102D2ED002A90ED003A02EE832AB64A3E
:1042C000283202EB810282ED002A4A1CD1B2022977
:1042D000E5DB704710B502460023B0480078B04CCB
:1042E0002478A0423FD0AE480078AC4C20708B7848
:1042F000032003E00C5C6340441CE0B20C28F9DBB3
:10430000087B984226D1A7480078401CA54C207015
:10431000887A20722046007AF52803D00020A080F9
:1043200060800DE008794C7940EA042000B29D4C91
:1043300060808878CC7840EA042000B2994CA08054
:104340008879CC7940EA04204FF47A7490FBF4F039
:10435000944CE0809FED940A944880ED000A01207F
:10436000904C607015E0914890ED000AF7EE000A5D
:10437000B4EEE00AF1EE10FA08D292ED000AD0EDA8
:10438000000A30EE200A80ED000A02E00020854C91
:10439000607010BD10B52DED020B85496846FFF722
:1043A00099FF844890ED142AF0EE421A90ED132AFA
:1043B000B0EE421A804890ED102AF0EE420A90EDDD
:1043C0000F2AB0EE420A6846FFF7E2FE1CBD00204D
:1043D00010E09FED750A7049283101EB800181EDF5
:1043E000000A9FED710A754901EB800181ED000A19
:1043F000411CC8B20228ECDB704770B52DED028B72
:1044000005460C46287800EE100AB8EE400ADFEDAB
:104410006C0A20EE200AB0EE408A142C01DC142035
:1044200006E0B4F5FA7F02DD4FF4FA7000E02046B2
:1044300000EE100AB8EEC00A574880ED010A90ED70
:10444000020ADFED600A20EE200AD0ED010A20EE1C
:10445000200A80ED040A90ED030ADFED5A0A20EEEF
:10446000200AD0ED010A20EE200A80ED050A00F1B5
:10447000180250493431103000F05BFE4648007895
:1044800010B101287DD10FE0012043490870B0EE42
:10449000000A4D4880ED000AB7EE000A4B4880ED57
:1044A000000AFFF794FFAFE03E48007AF52869D193
:1044B00000209CE03849183101EB800191ED000AA1
:1044C0003549283101EB8001D1ED000A30EE600A58
:1044D0003F4901EB800181ED000A384901EB800181
:1044E00091ED000A3A4901EB8001D1ED000A37490C
:1044F00091ED001A60EE810A00EE880A2F4901EB67
:10450000800181ED000A2D4901EB800191ED000A47
:10451000DFED300AB4EEE00AF1EE10FA02D89FEDBA
:104520002D0A13E0254901EB800191ED000ADFED32
:104530002A0AB4EEE00AF1EE10FA02DD9FED260A37
:1045400004E01E4901EB800191ED000A1B4901EBDB
:10455000800181ED000A194901EB800191ED000A0B
:104560001B4901EB8001D1ED000A174991ED001ABA
:1045700000EE810A0849283101EB8001D1ED000AE3
:104580002CE03EE036E000003433FB412001002007
:10459000E12E654208010020501000200401002097
:1045A0000905002044100020000000002801002020
:1045B0007C2E00204C010020001200201801002059
:1045C0006F12833A82A8FB382C01002030010020B2
:1045D000100100200000C8C20000C84240EE080AD6
:1045E000534901EB8001C1ED000A411CC8B2022809
:1045F000FFF660AF4E4A08324E494D4800F07AFD52
:1046000002E0FFF7E4FE00BF00BFBDEC028B70BD0F
:1046100001464948007AF52812D01FED1D0A44488A
:10462000283880ED030A80ED020A4078052843DB34
:104630003F4828384078401F3D4A283A50703BE0B8
:104640003D48C0884FF47A7292FBF0F03A4AB2F9D2
:104650000220504300EE100AB8EEC00A3748D0EDF1
:10466000010A9FED371A01EE200A3148283880ED03
:10467000020A3148C0884FF47A7292FBF0F02E4A59
:10468000B2F90420504300EE100AB8EEC00A2B48DD
:10469000D0ED000A9FED2A1A01EE600A244828385E
:1046A00080ED030A4078FA2806DC21482838407853
:1046B000401D1F4A283A507070472248007C48B17C
:1046C0001B4828380078012817D1002018492839BC
:1046D000087012E0164828384078642804DA002070
:1046E00013492839087008E0114828384078C8284C
:1046F00003DD01200E49283908700F48407830B199
:104700001148007818B101201049087202E0002019
:104710000E490872704701B5FFF7CFFF6846FFF7F3
:1047200077FF0B4801886846FFF767FE08BD000069
:104730007810002080010020441000200801002093
:104740000000204368020020FE0400201811002011
:10475000000500204749897F022903D0464909788E
:104760000A2924DD44490978491C434A117041490A
:10477000897F19B940F2DC51404A11603D49897F77
:10478000012903D140F6C4113C4A11603A49097825
:10479000142904DD38490978491E374A1170354912
:1047A000897F022903D14FF4FA71344A11607047AE
:1047B0000278FF2A11D14278072A09DC00222D4B0A
:1047C000DA778378427803EB02222A4B1A8404E0DA
:1047D0000122284BDA7700221A84704770B504460C
:1047E000002527482749097844542648007858B9B5
:1047F000FF2C05D123480078401C2249087038E07E
:1048000000202049087034E01E48007801280BD1B0
:10481000072C03DD00201B4908702AE019480078A6
:10482000401C1849087024E016480078022805D179
:1048300014480078401C134908701AE011480078A9
:10484000032816D1002005E00D49095C2944CDB2AA
:10485000411CC8B20328F7DBA54207D10421084850
:10486000FFF7A6FF00200749087002E00020054975
:10487000087070BDE4100020340100203C0C0040A2
:1048800098100020350100200748407B08B901201E
:1048900000E000200549087001204870704710B5FD
:1048A00006F06BFA10BD0000E41000203A0400206E
:1048B00090ED031AB5EEC01AF1EE10FA20DD90ED7E
:1048C000051AD0ED031AF1EE611AB4EEE11AF1EE19
:1048D00010FA04D890ED031AB1EE411A0DE090EDF4
:1048E000051AD0ED031AB4EEE11AF1EE10FA02DD6A
:1048F00090ED031A01E090ED051AF0EE410A01E097
:10490000D0ED050A90ED001A31EE201A80ED061A5E
:1049100090ED011AD0ED061A31EE611AD0ED021AAF
:1049200021EE211A80ED041A90ED051AD0ED041A3B
:1049300001EE801A80ED051A7047D0ED000A90ED67
:10494000041A30EE811AD0ED050A41EE000AC0EDDE
:10495000050AD0ED010A90ED051A70EEC10A90ED3E
:10496000021A60EE810AC0ED040AD0ED030AF5EEEA
:10497000C00AF1EE10FA1FDDD0ED040A90ED031A23
:10498000B1EE411AF4EEC10AF1EE10FA04D8D0EDFE
:10499000030AF1EE600A0DE0D0ED040A90ED031A6F
:1049A000F4EEC10AF1EE10FA02DDD0ED030A01E0E7
:1049B000D0ED040AC0ED040A7047F0EE401A9FEDF6
:1049C000FC2A20EE822A22EE212AB7EE003AC3EE1C
:1049D000022AB7EE002A32EE822AB7EE003AC3EE80
:1049E000022A90ED002A31EE423A90ED002A02EEC2
:1049F000832A80ED002AB5EEC01AF1EE10FA02DD2E
:104A0000B0EE412A01E0B1EE412AB0EE420A90ED4B
:104A1000002AF1EE402AB4EEE22AF1EE10FA02D8B2
:104A2000B1EE402A0BE090ED002AB4EEC02AF1EE80
:104A300010FA02DDB0EE402A01E090ED002A80ED90
:104A4000012A7047F0EE401A9FEDD92A20EE822A03
:104A500022EE212AB7EE003AC3EE022AB7EE002A70
:104A600032EE822AB7EE003AC3EE022A90ED002A17
:104A700031EE423A90ED002A02EE832A80ED002AC0
:104A800090ED002AB5EEC02AF1EE10FA02DD90EDAD
:104A9000002A03E090ED002AB1EE422AB0EE420A6D
:104AA000B1EE402AB4EEC21AF1EE10FA02D8B1EE1D
:104AB000402A09E0B4EEC01AF1EE10FA02DDB0EEC1
:104AC000402A01E0B0EE412A80ED012A7047F0EE65
:104AD000401A9FEDB72A20EE822A22EE212AB7EE55
:104AE000003AC3EE022AB7EE002A32EE822AB7EE6F
:104AF000003AC3EE022A90ED002A31EE423A90EDE0
:104B0000002A02EE832A80ED002AB5EEC01AF1EEEB
:104B100010FA02DDB0EE412A01E0B1EE412AB0EE1A
:104B2000420A90ED002AF1EE402AB4EEE22AF1EEBC
:104B300010FA02D8B1EE402A0BE090ED002AB4EE54
:104B4000C02AF1EE10FA02DDB0EE402A01E090ED4D
:104B5000002A80ED002A80ED012A70472DE9F84FE8
:104B600004460D46DDF828804FF001094FF0000A99
:104B70000126B346CDF800B00127DFED8E0AB0EE76
:104B8000600A00208446D2F808B0C2F80CB092F84F
:104B900000B00BF1010B0BF0FF0B82F800B0AB453E
:104BA00002DB834682F800B092F800B044F82B8014
:104BB000D2F80CB0A8EB0B0B00EE90BAB8EEE01AEE
:104BC00000EE903AF8EE600AC1EE201AB0EE610AEB
:104BD000B5EEC00AF1EE10FA02DDF0EE400A01E097
:104BE000F1EE400AB7EE001AF4EEC10AF1EE10FA47
:104BF0002BD2B5EEC00AF1EE10FA02DDB0EE401A8B
:104C000001E0B1EE401A00EE903AF8EE600A61EE73
:104C1000200AB0EE001AF4EEC10AF1EE10FA04D246
:104C2000DFED640AB0EE600A0FE0B5EEC00AF1EE07
:104C300010FA02DD4FF0010B01E04FF0FF3B00EEF8
:104C400090BAF8EEE00AB0EE600AD06800BF00212A
:104C50000DE054F821B0ABEB000B54F821E0AEEBC3
:104C6000000E0BFB0ECC01F1010B0FFA8BF1A942E8
:104C7000EFDBD2F804B0ACEB0B0BBBF1000F11DD96
:104C8000B9F1000F03D14FF0000BCDF800B04FF099
:104C90000109012F02D14FF0FF3B01E04FF0010B62
:104CA0005F4607E04FF000099E4203DA06F1010B70
:104CB0000BF0FF06C2F804C04FF0000C00EE900AA3
:104CC000B8EEE01A00EE907AF8EEE00A00EE801AF4
:104CD000FDEEC10A10EE900A0AF1010B0BF0FF0B7A
:104CE000DA469B4502DDE346CDF800B0022E03DB39
:104CF0004FF0000BCDF800B0DDF800B0BBF1010FB4
:104D0000A5D09060D2E902BEABEB0E0BC2F810B09A
:104D1000BDE8F88F70B505460C461678761CF6B2DD
:104D20001670A64201DB00261670167805EB860683
:104D300086ED000A002009E005EB800696ED001ADA
:104D400003EB800686ED001A461CF0B2A042F3DBAE
:104D5000002029E0002121E003EB810696ED001AF6
:104D60004E1C03EB8606D6ED001AB4EEE11AF1EE06
:104D700010FA11DD4E1C03EB8606D6ED000A03EB9C
:104D8000810696ED001A4E1C03EB860686ED001A8E
:104D900003EB8106C6ED000A4E1CF1B2661E361A00
:104DA0008E42D9DC461CF0B2661E8642D2DC70BD53
:104DB000C3F5C8400000000030B50C4615886D1CD6
:104DC000ADB21580A54201DB00251580158800EBEA
:104DD0008505D5ED000A158800EB850585ED000AEF
:104DE00070EE601A01EE104AB8EE412A81EE821A86
:104DF000D3ED001A31EE211A83ED001A93ED001A5B
:104E0000D3ED001A70EE611ABFEE002AF4EEC21A5A
:104E1000F1EE10FA02D8FFEE001A11E0D3ED001AFD
:104E200070EE611AB7EE002AF4EEC21AF1EE10FA33
:104E300002DDF7EE001A03E0D3ED001A70EE611AFE
:104E40009FEDA82A02EE211A83ED001A30BD5FED16
:104E5000281A60EE211A21EEA02AF7EE002AC2EEEF
:104E6000821AB7EE002A71EE821AF7EE002A82EE5D
:104E7000A12AD0ED001A71EE612AD0ED001A42EE9F
:104E8000221AC0ED001A704770B52DED0A8BB0EEF6
:104E9000408AF0EE608AB0EE419AF0EE619A0446E4
:104EA00094ED001BB0EE410AF0EE610A53EC102BBA
:104EB00051EC190B14F08FFE41EC1B0B1FED440A53
:104EC00028EE000A20EE280AB7EE001AC1EE000A0A
:104ED000B7EE000A30EE800AF7EE000A80EE801A84
:104EE00011EE105A284614F01EFF41EC1C0B53EC37
:104EF0001B2B14F076FE41EC1A0B94ED001BB0EE68
:104F0000410AF0EE610A53EC102B14F0C3FDC4E922
:104F10000001BDEC0A8B70BD90ED001A30EEC11A95
:104F2000B4EEC01AF1EE10FA06DD90ED001A31EE83
:104F3000001A80ED001A13E090ED001A30EEC11A4D
:104F4000F1EE401AB4EEE11AF1EE10FA06D290ED4D
:104F5000001A31EE401A80ED001A01E0C0ED000A9F
:104F60007047B0EE402A1FED6E0A20EE800A20EE58
:104F7000020AB7EE003AC3EE002AB7EE000A32EE9C
:104F8000800AB7EE003AC3EE002A90ED000A31EE37
:104F9000403A90ED000A02EE830A80ED000A90ED9F
:104FA000000AF1EE612AB4EEE20AF1EE10FA02D83C
:104FB000B1EE610A0BE090ED000AB4EEE10AF1EE09
:104FC00010FA02DDB0EE610A01E090ED000A80ED1A
:104FD000000A90ED000A31EE400A704770B50446B1
:104FE0000D461646D4ED020A60EEA00A94ED011AB1
:104FF000D4ED011A41EE210AB0EE600A00F03AFF4A
:10500000394880ED000AD4ED020A60EEA00A94ED62
:10501000001AD4ED001A41EE210AB0EE600A00F049
:1050200029FF324880ED000A94ED020AB5EEC00A6D
:10503000F1EE10FA02D24FF0FF3000E001202C49CF
:10504000087095ED000A2848D0ED000A60EE200AAD
:1050500094ED001A084690F9000000EE100AB8EE30
:10506000C00A21EE000A95ED021A40EE410AC6ED93
:10507000000A084690F9000000EE100AB8EEC00AD7
:105080001A48D0ED000A20EE200AD5ED010A20EEE4
:10509000200AD4ED010A95ED021A00EEC10A86ED50
:1050A000010A94ED000AD5ED000A20EE200AD4EDA5
:1050B000010A95ED011A00EE810AD4ED020A95ED80
:1050C000021A00EE810A86ED020A70BD70B5044630
:1050D0000D461646324629462046FFF77FFF70BD33
:1050E00070470000ACC5273744010020480100206C
:1050F0004001002090ED000AD1ED000A20EE200AC8
:10510000D0ED010A91ED011A00EE810A82ED000A4C
:1051100090ED000AD1ED010AF1EE600A20EE200ABE
:10512000D0ED010A91ED001A00EE810A82ED010A2C
:10513000704790ED000AD1ED000A20EE200AD0ED74
:10514000010A91ED011AB1EE411A00EE810A82EDD9
:10515000000A90ED000AD1ED010A20EE200AD0ED00
:10516000010A91ED001A00EE810A82ED010A7047F2
:1051700030B502460B46002022E0DFEDFE0AB0EE1D
:10518000600A002114E000EB4004FB4D05EB8404B1
:1051900004EB810494ED001A02EB8104D4ED001AB3
:1051A000F0EE400A41EE810AB0EE600A4C1CE1B21A
:1051B0000329E8DB03EB800181ED000A411CC8B242
:1051C0000328DADB30BD2DE9F0412DED068B86B0EA
:1051D000F0EE409A0546884617461E46129C94ED0E
:1051E000000AD4ED010A20EE200AE44880ED000A0E
:1051F00094ED000AD4ED020A20EE200AE04880ED8A
:10520000000A94ED010A20EE000ADE4880ED000A53
:1052100094ED010AD4ED030A20EE200ADA4880ED6D
:10522000000A94ED020A20EE000AD84880ED000A38
:1052300094ED020AD4ED030A20EE200AD44880ED52
:10524000000A94ED030A20EE000AD24880ED000A1D
:1052500094ED010AD4ED020A20EE200ACE4880ED3A
:10526000000A94ED000AD4ED030A20EE200ACB4890
:1052700080ED000A287DE0B300203FE0002100EE31
:10528000101A00BF18E001EB4102BB4B03EB820296
:1052900002EB800292ED001A04F17C0202EB810223
:1052A000D2ED001AF8EEC00A41EE810AFDEEE00AE6
:1052B000B0EE600A4A1CD1B20329E4DBF8EEC00A62
:1052C00004F1880101EB8001C1ED000A57F82010BC
:1052D00000EE901AF8EEE00A04F1880101EB80017B
:1052E00091ED001A70EEC10A04F1940101EB800106
:1052F00000E006E0C1ED000A411CC8B20328BDDB96
:1053000011E000200DE057F8201000EE101AB8EE62
:10531000C00A04F1940101EB800181ED000A411CF7
:10532000C8B20328EFDBD4ED250A60EEA00A94EDA5
:10533000261AD4ED261A41EE210A94ED271AD4ED4F
:10534000271A41EE210AB0EE600A00F06DFDF0EE82
:10535000408AF5EEC08AF1EE10FA02D19FED850A7F
:1053600003E0F7EE000A80EEA80AB0EE40AA0020A3
:105370000EE004F1940101EB800191ED000A20EEB2
:10538000280A03A901EB800181ED000A411CC8B283
:105390000328EEDB7D4890ED000AF0EE000A20EED7
:1053A000200A7C48D0ED000AB0EE001A01EE200A77
:1053B000F7EE000A30EEC00A84ED040A6E4880ED74
:1053C000000A754890ED000AF0EE000A20EE200A6F
:1053D0007248D0ED000AB0EE001A01EE600A84EDCA
:1053E000050A654880ED010A674890ED000AF0EE75
:1053F000000A20EE200A6248D0ED000AB0EE001A42
:1054000001EE200A84ED060A5B4880ED020A62483C
:1054100090ED000AF0EE000A20EE200A5F48D0ED81
:10542000000AB0EE001A01EE200A84ED070A524885
:1054300080ED030A534890ED000AF0EE000A20EEDA
:10544000200A5448D0ED000AB0EE001A01EE200AFE
:10545000F7EE000A30EEC00A84ED080A464880EDF7
:10546000040A4B4890ED000AF0EE000A20EE200AF4
:105470004248D0ED000AB0EE001A01EE600A84ED59
:10548000090A3D4880ED050A3F4890ED000AF0EE1C
:10549000000A20EE200A3A48D0ED000AB0EE001AC9
:1054A00001EE600A84ED0A0A334880ED060A3848A6
:1054B00090ED000AF0EE000A20EE200A2F48D0ED11
:1054C000000AB0EE001A01EE200A84ED0B0A2A4809
:1054D00080ED070A2B4890ED000AF0EE000A20EE5E
:1054E000200A2A48D0ED000AB0EE001A01EE200A88
:1054F000F7EE000A30EEC00A84ED0C0A1E4880ED7B
:10550000080AD0ED000A60EEA00A90ED031AD0ED73
:10551000031A41EE210AB0EE600A00F085FCB0EEFD
:10552000409A154890ED000A20EE090A84ED0D0A14
:1055300090ED030A20EE090A84ED0E0A002035E002
:1055400057F8201000EE101AB8EEC00A04F1280136
:1055500001EB8001D1ED000A9FED111A01EE600A06
:10556000BDEEC00AB8EEC00A04F1400101EB8001B3
:1055700018E0000000000000241100203402002088
:10558000380200203C02002040020020440200209B
:10559000480200204C02002050020020540200204B
:1055A0000040754481ED000A411CC8B20328C7DBE6
:1055B000002029E0002100EE101A00BF18E000EBE7
:1055C0004002F84B03EB820202EB810292ED001ADB
:1055D00004F1400202EB8102D2ED001AF8EEC00A9B
:1055E00041EE810AFDEEE00AB0EE600A4A1CD1B23B
:1055F0000329E4DBF8EEC00A04F14C0101EB800161
:10560000C1ED000A411CC8B20328D3DB04F15802E3
:10561000E54904F14C00FFF76DFD9DED040AD4ED62
:105620000C0A20EE200AD4ED0B0A9DED051A00EEBF
:10563000C10ADE4880ED000A9DED030AD4ED0C0A94
:1056400020EE200AD4ED0A0A9DED051A10EE810A1B
:1056500080ED010A9DED040AD4ED0A0A20EE200A2D
:10566000D4ED0B0A9DED031A10EE810A80ED020ABB
:1056700000200CE036F9101000EE101AB8EEC00A47
:10568000CB4901EB800181ED000A411CC8B203281F
:10569000F0DB308818B9708808B9B088E8B304F135
:1056A0006401C348FFF764FDD4ED190A60EEA00A57
:1056B00094ED1A1AD4ED1A1A41EE210AB0EE600ADE
:1056C00000F0B2FBF0EE40AA94ED190A20EE2A0A8F
:1056D000B84880ED020A94ED1A0A20EE2A0A80EDFD
:1056E000030A0146083000F0A7FEB34880ED000A27
:1056F000B04901F1080000F0ACFEB04880ED000AAE
:1057000090ED000AB5EEC00AF1EE10FA26D2AA48D2
:1057100090ED000ADFEDAA0A00E020E0B4EEE00A16
:10572000F1EE10FA01DD01200DE0A34890ED000A32
:10573000DFEDA40AB4EEE00AF1EE10FA02D24FF067
:10574000FF3000E0002000EE100AB8EEC00AF7EECD
:10575000000A20EE200A984880ED000A00BF0020D1
:105760007CE09FED990AB4EEC0AAF1EE10FA06DCD7
:105770009FED960AB4EEC0AAF1EE10FA08D21FED22
:10578000830A8A4981ED020A81ED010A81ED000A4E
:105790008F4901EB800191ED000A844901EB800102
:1057A000D1ED000A9FED8B1AF4EEC10AF1EE10FA6A
:1057B00002D8DFED880A13E07C4901EB8001D1EDCE
:1057C000000A9FED851AF4EEC10AF1EE10FA02DD2F
:1057D000DFED810A04E0754901EB8001D1ED000A9B
:1057E00060EEA90A7D4991ED001A00EE810A784920
:1057F00001EB800181ED000A6C4901EB800191ED24
:10580000000A734901EB8001D1ED000A70EE200A15
:1058100008EB800191ED000A714991ED001A00EE4C
:10582000810A04F1280101EB8001D1ED000A6249EF
:1058300091ED001A60EE810A6A4991ED001A00EEBE
:10584000810A20EE290AF0EE000A80EE201A69464D
:1058500001EB800181ED001A411CC8B2032880DBF6
:1058600094ED000AD4ED010A9DED001A00EEC10A84
:10587000D4ED020A9DED011A00EEC10AD4ED030A2F
:105880009DED021A00EEC10A84ED000A94ED010AB2
:10589000D4ED000A9DED001A00EE810AD4ED020A53
:1058A0009DED021A00EE810AD4ED030A9DED011A66
:1058B00000EEC10A84ED010A94ED000ADDED010A53
:1058C00020EE200AD4ED010A9DED021A00EEC10A75
:1058D000D4ED020A30EE200AD4ED030A9DED001A41
:1058E00000EE810A84ED020A94ED000ADDED020A61
:1058F00020EE200AD4ED010A9DED011A00EE810A86
:10590000D4ED020A9DED001A00EEC10AD4ED030A9F
:1059100030EE200A84ED030AD4ED000A60EEA00AFE
:1059200094ED011AD4ED011A41EE210A94ED021A08
:10593000D4ED021A41EE210A94ED031AD4ED031AB4
:1059400041EE210AB0EE600A00F06EFAB0EE408A35
:10595000D4ED000AB0EE480A20EE800A84ED000A79
:10596000D4ED010AB0EE480A20EE800A84ED010A67
:10597000D4ED020AB0EE480A20EE800A84ED020A55
:10598000D4ED030AB0EE480A20EE800A84ED030A43
:10599000E87C58BB9FED140A124880ED000A0020F5
:1059A000687451E02411002080010020481100207B
:1059B0006011002080020020580200205C020020BC
:1059C000BD378635BD3786B500808444000061440C
:1059D00054110020CDCCCCBDCDCCCC3D98020020C4
:1059E000940200209C02002000000000FFE7687C79
:1059F00028B3B2EE040A9A4880ED000A994890ED67
:105A0000000AB5EEC00AF1EE10FA1DD090ED000AC2
:105A1000B5EEC00AF1EE10FA02DD90ED000A04E0E6
:105A2000904890ED000AB1EE400ADFED8F0AB4EE27
:105A3000E00AF1EE10FA07D20020687404E095ED58
:105A4000020A874880ED000AA87C28B91FED1A0ACF
:105A5000864880ED000A74E0287C50B995ED000A74
:105A6000824880ED000A95ED010A814880ED000A28
:105A700067E0B2EE040A7D4880ED000A1FED260AB9
:105A80007B4880ED000A7B4890ED000AB5EEC00A25
:105A9000F1EE10FA02DD90ED000A04E0754890ED99
:105AA000000AB1EE400A7348D0ED010AF5EEC00AD3
:105AB000F1EE10FA02DDD0ED010A04E06D48D0ED00
:105AC000010AF1EE600A30EE200A6B4880ED000A10
:105AD00090ED000AB5EEC00AF1EE10FA02D81FED03
